{
  "_format": "hh-sol-artifact-1",
  "contractName": "USDCFaucet",
  "sourceName": "contracts/USDCFaucet.sol",
  "abi": [
    {
      "inputs": [
        {
          "internalType": "address",
          "name": "_usdcTokenAddress",
          "type": "address"
        }
      ],
      "stateMutability": "nonpayable",
      "type": "constructor"
    },
    {
      "anonymous": false,
      "inputs": [
        {
          "indexed": false,
          "internalType": "uint256",
          "name": "amount",
          "type": "uint256"
        }
      ],
      "name": "FaucetFunded",
      "type": "event"
    },
    {
      "anonymous": false,
      "inputs": [
        {
          "indexed": true,
          "internalType": "address",
          "name": "to",
          "type": "address"
        },
        {
          "indexed": false,
          "internalType": "uint256",
          "name": "amount",
          "type": "uint256"
        }
      ],
      "name": "TokensClaimed",
      "type": "event"
    },
    {
      "inputs": [],
      "name": "LOCK_TIME",
      "outputs": [
        {
          "internalType": "uint256",
          "name": "",
          "type": "uint256"
        }
      ],
      "stateMutability": "view",
      "type": "function"
    },
    {
      "inputs": [],
      "name": "claim",
      "outputs": [],
      "stateMutability": "nonpayable",
      "type": "function"
    },
    {
      "inputs": [],
      "name": "claimAmount",
      "outputs": [
        {
          "internalType": "uint256",
          "name": "",
          "type": "uint256"
        }
      ],
      "stateMutability": "view",
      "type": "function"
    },
    {
      "inputs": [
        {
          "internalType": "address",
          "name": "",
          "type": "address"
        }
      ],
      "name": "lastClaimTime",
      "outputs": [
        {
          "internalType": "uint256",
          "name": "",
          "type": "uint256"
        }
      ],
      "stateMutability": "view",
      "type": "function"
    },
    {
      "inputs": [],
      "name": "usdcToken",
      "outputs": [
        {
          "internalType": "contract IERC20",
          "name": "",
          "type": "address"
        }
      ],
      "stateMutability": "view",
      "type": "function"
    }
  ],
  "bytecode": "0x608060405234801561001057600080fd5b506040516109c33803806109c3833981810160405281019061003291906100e6565b806000806101000a81548173ffffffffffffffffffffffffffffffffffffffff021916908373ffffffffffffffffffffffffffffffffffffffff1602179055506302faf08060018190555050610113565b600080fd5b600073ffffffffffffffffffffffffffffffffffffffff82169050919050565b60006100b382610088565b9050919050565b6100c3816100a8565b81146100ce57600080fd5b50565b6000815190506100e0816100ba565b92915050565b6000602082840312156100fc576100fb610083565b5b600061010a848285016100d1565b91505092915050565b6108a1806101226000396000f3fe608060405234801561001057600080fd5b50600436106100575760003560e01c806311eac8551461005c578063413d9c3a1461007a5780634e71d92d14610098578063830953ab146100a2578063b77cf9c6146100c0575b600080fd5b6100646100f0565b6040516100719190610497565b60405180910390f35b610082610114565b60405161008f91906104cb565b60405180910390f35b6100a0610119565b005b6100aa6103fa565b6040516100b791906104cb565b60405180910390f35b6100da60048036038101906100d59190610529565b610400565b6040516100e791906104cb565b60405180910390f35b60008054906101000a900473ffffffffffffffffffffffffffffffffffffffff1681565b603c81565b603c600260003373ffffffffffffffffffffffffffffffffffffffff1673ffffffffffffffffffffffffffffffffffffffff168152602001908152602001600020546101659190610585565b4210156101a7576040517f08c379a000000000000000000000000000000000000000000000000000000000815260040161019e9061063c565b60405180910390fd5b60015460008054906101000a900473ffffffffffffffffffffffffffffffffffffffff1673ffffffffffffffffffffffffffffffffffffffff166370a08231306040518263ffffffff1660e01b8152600401610203919061066b565b602060405180830381865afa158015610220573d6000803e3d6000fd5b505050506040513d601f19601f8201168201806040525081019061024491906106b2565b1015610285576040517f08c379a000000000000000000000000000000000000000000000000000000000815260040161027c90610751565b60405180910390fd5b42600260003373ffffffffffffffffffffffffffffffffffffffff1673ffffffffffffffffffffffffffffffffffffffff1681526020019081526020016000208190555060008054906101000a900473ffffffffffffffffffffffffffffffffffffffff1673ffffffffffffffffffffffffffffffffffffffff1663a9059cbb336001546040518363ffffffff1660e01b8152600401610326929190610771565b6020604051808303816000875af1158015610345573d6000803e3d6000fd5b505050506040513d601f19601f8201168201806040525081019061036991906107d2565b6103a8576040517f08c379a000000000000000000000000000000000000000000000000000000000815260040161039f9061084b565b60405180910390fd5b3373ffffffffffffffffffffffffffffffffffffffff167f896e034966eaaf1adc54acc0f257056febbd300c9e47182cf761982cf1f5e4306001546040516103f091906104cb565b60405180910390a2565b60015481565b60026020528060005260406000206000915090505481565b600073ffffffffffffffffffffffffffffffffffffffff82169050919050565b6000819050919050565b600061045d61045861045384610418565b610438565b610418565b9050919050565b600061046f82610442565b9050919050565b600061048182610464565b9050919050565b61049181610476565b82525050565b60006020820190506104ac6000830184610488565b92915050565b6000819050919050565b6104c5816104b2565b82525050565b60006020820190506104e060008301846104bc565b92915050565b600080fd5b60006104f682610418565b9050919050565b610506816104eb565b811461051157600080fd5b50565b600081359050610523816104fd565b92915050565b60006020828403121561053f5761053e6104e6565b5b600061054d84828501610514565b91505092915050565b7f4e487b7100000000000000000000000000000000000000000000000000000000600052601160045260246000fd5b6000610590826104b2565b915061059b836104b2565b92508282019050808211156105b3576105b2610556565b5b92915050565b600082825260208201905092915050565b7f555344434661756365743a20576169742031206d696e7574652062657477656560008201527f6e20636c61696d73000000000000000000000000000000000000000000000000602082015250565b60006106266028836105b9565b9150610631826105ca565b604082019050919050565b6000602082019050818103600083015261065581610619565b9050919050565b610665816104eb565b82525050565b6000602082019050610680600083018461065c565b92915050565b61068f816104b2565b811461069a57600080fd5b50565b6000815190506106ac81610686565b92915050565b6000602082840312156106c8576106c76104e6565b5b60006106d68482850161069d565b91505092915050565b7f555344434661756365743a20456d7074792120466175636574206e656564732060008201527f66756e64696e672e000000000000000000000000000000000000000000000000602082015250565b600061073b6028836105b9565b9150610746826106df565b604082019050919050565b6000602082019050818103600083015261076a8161072e565b9050919050565b6000604082019050610786600083018561065c565b61079360208301846104bc565b9392505050565b60008115159050919050565b6107af8161079a565b81146107ba57600080fd5b50565b6000815190506107cc816107a6565b92915050565b6000602082840312156107e8576107e76104e6565b5b60006107f6848285016107bd565b91505092915050565b7f555344434661756365743a205472616e73666572206661696c65640000000000600082015250565b6000610835601b836105b9565b9150610840826107ff565b602082019050919050565b6000602082019050818103600083015261086481610828565b905091905056fea2646970667358221220a9f0f19cd0baba3316d1971134310328286fcf1dd6a41bf10fb0d2605314a19b64736f6c63430008140033",
  "linkReferences": {},
  "deployedLinkReferences": {}
}